:020000040800F2
:1000000000000220892300081121000817210008A0
:100010001D210008232100082921000800000000FC
:100020000000000000000000000000002F21000878
:100030003D210008000000004B2100085921000864
:10004000D9230008D9230008D9230008D9230008A0
:10005000D9230008D923000865210008952100084C
:10006000A3210008B1210008BF210008D9230008FE
:10007000D9230008D9230008D9230008D923000870
:10008000D9230008D9230008D9230008D923000860
:10009000D9230008D9230008D9230008CD2100085E
:1000A000E1210008FD210008D9230008D923000818
:1000B000D9230008D9230008D9230008D923000830
:1000C000D9230008D9230008D9230008D923000820
:1000D000D923000819220008D9230008D9230008D1
:1000E0002D220008D9230008D9230008D9230008AD
:1000F000D9230008D9230008D9230008D9230008F0
:10010000D9230008D92300084D220008D92300086C
:1001100061220008D92300087522000889220008FE
:10012000D9230008D9230008D9230008D9230008BF
:10013000D92300080000000000000000D9230008B7
:10014000D9230008D9230008D9230008D92300089F
:10015000D9230008D9230008D9230008D92300088F
:10016000D9230008D9230008D9230008D92300087F
:10017000D9230008D9230008000000000000000077
:08018000D9230008D92300086F
:1001880010B5054C237833B9044B13B10448AFF3C9
:1001980000800123237010BD0C0000200000000027
:1001A8004455000808B5034B1BB103490348AFF396
:1001B800008008BD00000000100000204455000821
:1001C80070B54FF0FF0C4CF4E06C1CEA11541DBFE5
:1001D8001CEA135594EA0C0F95EA0C0F00F0DEF8B0
:1001E8002C4481EA030621EA4C5123EA4C5350EA95
:1001F800013518BF52EA033541F4801143F48013E6
:1002080038D0A0FB02CE4FF00005E1FB02E506F076
:100218000042E0FB03E54FF00006E1FB03569CF0CB
:10022800000F18BF4EF0010EA4F1FF04B6F5007FD1
:1002380064F5407404D25FEA4E0E6D4146EB060643
:1002480042EAC62141EA55514FEAC52040EA5E50CC
:100258004FEACE2EB4F1FD0C88BFBCF5E06F1ED876
:10026800BEF1004F08BF5FEA500E50F1000041EBAD
:10027800045170BD06F0004646EA010140EA02005A
:1002880081EA0301B4EB5C04C2BFD4EB0C0541EA7C
:10029800045170BD41F480114FF0000E013C00F391
:1002A800AB8014F1360FDEBF002001F0004170BDB5
:1002B800C4F10004203C35DA0C341BDC04F11404CE
:1002C800C4F1200500FA05F320FA04F001FA05F25A
:1002D80040EA020001F0004221F0004110EBD37027
:1002E80021FA04F642EB06015EEA430E08BF20EA53
:1002F800D37070BDC4F10C04C4F1200500FA04F3F6
:1003080020FA05F001FA04F240EA020001F0004187
:1003180010EBD37041F100015EEA430E08BF20EAFA
:10032800D37070BDC4F1200500FA05F24EEA020E42
:1003380020FA04F301FA05F243EA020321FA04F071
:1003480001F0004121FA04F220EA020000EBD37028
:100358005EEA430E08BF20EAD37070BD94F0000F28
:100368000FD101F00046400041EB010111F4801F5C
:1003780008BF013CF7D041EA060195F0000F18BF0D
:10038800704703F00046520043EB030313F4801F49
:1003980008BF013DF7D043EA0603704794EA0C0F03
:1003A8000CEA135518BF95EA0C0F0CD050EA410619
:1003B80018BF52EA4306D1D181EA030101F0004196
:1003C8004FF0000070BD50EA410606BF10461946BE
:1003D80052EA430619D094EA0C0F02D150EA0136CA
:1003E80013D195EA0C0F05D152EA03361CBF10460B
:1003F80019460AD181EA030101F0004141F0FE41AA
:1004080041F470014FF0000070BD41F0FE4141F42D
:10041800780170BD81F0004102E000BF83F0004325
:1004280030B54FEA41044FEA430594EA050F08BF87
:1004380090EA020F1FBF54EA000C55EA020C7FEA4B
:10044800645C7FEA655C00F0E2804FEA5454D4EBC8
:100458005555B8BF6D420CDD2C4480EA020281EA92
:10046800030382EA000083EA010180EA020281EACA
:100478000303362D88BF30BD11F0004F4FEA01311C
:100488004FF4801C4CEA113102D0404261EB41012B
:1004980013F0004F4FEA03334CEA133302D05242B1
:1004A80063EB430394EA050F00F0A780A4F101046D
:1004B800D5F1200E0DDB02FA0EFC22FA05F28018A7
:1004C80041F1000103FA0EF2801843FA05F359418D
:1004D8000EE0A5F120050EF1200E012A03FA0EFC0C
:1004E80028BF4CF0020C43FA05F3C01851EBE37136
:1004F80001F0004507D54FF0000EDCF1000C7EEB53
:1005080000006EEB0101B1F5801F1BD3B1F5001F90
:100518000CD349085FEA30004FEA3C0C04F10104AF
:100528004FEA445212F5800F80F09A80BCF1004FD8
:1005380008BF5FEA500C50F1000041EB045141EA5A
:10054800050130BD5FEA4C0C404141EB0101013C23
:1005580028BFB1F5801FE9D291F0000F04BF014612
:100568000020B1FA81F308BF2033A3F10B03B3F1E4
:1005780020020CDA0C3208DD02F1140CC2F10C0274
:1005880001FA0CF021FA02F10CE002F11402D8BFD2
:10059800C2F1200C01FA02F120FA0CFCDCBF41EA9E
:1005A8000C019040E41AA2BF01EB0451294330BD6D
:1005B8006FEA04041F3C1CDA0C340EDC04F114044A
:1005C800C4F1200220FA04F001FA02F340EA030021
:1005D80021FA04F345EA030130BDC4F10C04C4F167
:1005E800200220FA02F001FA04F340EA0300294647
:1005F80030BD21FA04F0294630BD94F0000F83F491
:10060800801306BF81F480110134013D4EE77FEA73
:10061800645C18BF7FEA655C29D094EA050F08BFBF
:1006280090EA020F05D054EA000C04BF19461046A0
:1006380030BD91EA030F1EBF0021002030BD5FEAE4
:10064800545C05D14000494128BF41F0004130BD0C
:1006580014F580043CBF01F5801130BD01F0004560
:1006680045F0FE4141F470014FF0000030BD7FEAD3
:10067800645C1ABF194610467FEA655C1CBF0B46CE
:10068800024650EA013406BF52EA033591EA030FE5
:1006980041F4002130BD00BF90F0000F04BF0021DD
:1006A800704730B54FF4806404F132044FF0000510
:1006B8004FF0000150E700BF90F0000F04BF002189
:1006C800704730B54FF4806404F1320410F00045EF
:1006D80048BF40424FF000013EE700BF42004FEAEA
:1006E800E2014FEA31014FEA02701FBF12F07F4367
:1006F80093F07F4F81F06051704732F07F4208BF1E
:10070800704793F07F4F04BF41F40021704730B524
:100718004FF4607401F0004521F000411CE700BF70
:1007280050EA010208BF704730B54FF000050AE0F3
:1007380050EA010208BF704730B511F0004502D5F4
:10074800404261EB41014FF4806404F132045FEAF6
:10075800915C3FF4D8AE4FF003025FEADC0C18BF9F
:1007680003325FEADC0C18BF033202EBDC02C2F191
:10077800200300FA03FC20FA02F001FA03FE40EA23
:100788000E0021FA02F11444BDE600BF4A0011D25E
:1007980012F5001211D20DD56FF47873B3EB6252D3
:1007A8000ED44FEAC12343F0004343EA505323FADF
:1007B80002F070474FF00000704750EA013002D154
:1007C8004FF0FF3070474FF00000704753B94AB9F7
:1007D800002908BF00281CBF4FF0FF314FF0FF3041
:1007E80000F074B9ADF1080C6DE904CE00F006F81C
:1007F800DDF804E0DDE9022304B070472DE9F04795
:10080800089D04468E46002B4DD18A42944669D9EC
:10081800B2FA82F252B101FA02F3C2F1200120FACF
:1008280001F10CFA02FC41EA030E94404FEA1C481D
:10083800210CBEFBF8F61FFA8CF708FB16E341EA19
:10084800034306FB07F199420AD91CEB030306F19F
:10085800FF3080F01F81994240F21C81023E6344C0
:100868005B1AA4B2B3FBF8F008FB103344EA034464
:1008780000FB07F7A7420AD91CEB040400F1FF3379
:1008880080F00A81A74240F207816444023840EAB6
:100898000640E41B00261DB1D4400023C5E90043EF
:1008A8003146BDE8F0878B4209D9002D00F0EF8072
:1008B8000026C5E9000130463146BDE8F087B3FAA5
:1008C80083F6002E4AD18B4202D3824200F2F9808D
:1008D800841A61EB030301209E46002DE0D0C5E990
:1008E800004EDDE702B9FFDEB2FA82F2002A40F0DC
:1008F8009280A1EB0C014FEA1C471FFA8CFE0126DF
:10090800200CB1FBF7F307FB131140EA01410EFB82
:1009180003F0884208D91CEB010103F1FF3802D229
:10092800884200F2CB804346091AA4B2B1FBF7F023
:1009380007FB101144EA01440EFB00FEA64508D946
:100948001CEB040400F1FF3102D2A64500F2BB8083
:100958000846A4EB0E0440EA03409CE7C6F12007D2
:10096800B34022FA07FC4CEA030C20FA07F401FA18
:1009780006F31C43F9404FEA1C4900FA06F3B1FBA1
:10098800F9F8200C1FFA8CFE09FB181140EA014106
:1009980008FB0EF0884202FA06F20BD91CEB0101A3
:1009A80008F1FF3A80F08880884240F28580A8F1FB
:1009B80002086144091AA4B2B1FBF9F009FB10114D
:1009C80044EA014100FB0EFE8E4508D91CEB0101EB
:1009D80000F1FF346CD28E456AD90238614440EA8E
:1009E8000840A0FB0294A1EB0E01A142C846A6460E
:1009F80056D353D05DB1B3EB080261EB0E0101FA97
:100A080007F722FA06F3F1401F43C5E900710026F3
:100A18003146BDE8F087C2F12003D8400CFA02FC49
:100A280021FA03F3914001434FEA1C471FFA8CFE59
:100A3800B3FBF7F007FB10360B0C43EA064300FB49
:100A48000EF69E4204FA02F408D91CEB030300F1E7
:100A5800FF382FD29E422DD9023863449B1B89B29E
:100A6800B3FBF7F607FB163341EA034106FB0EF327
:100A78008B4208D91CEB010106F1FF3816D28B42D4
:100A880014D9023E6144C91A46EA004638E72E46A0
:100A9800284605E70646E3E61846F8E64B45A9D298
:100AA800B9EB020864EB0C0E0138A3E74646EAE707
:100AB800204694E74046D1E7D0467BE7023B6144B5
:100AC80032E7304609E76444023842E7704700BF1E
:100AD80080B582B000AF78607B681B685C4A93423F
:100AE80040F097805B4B1B78012B04D05A4B1B7846
:100AF800012B40F08E80594B1B78052B12D1584B97
:100B08001B78052B0ED1554B00221A70514B002231
:100B18001A70534B00221A7000224FF4805151482A
:100B280002F046F84D4B1B78042B02D14E4B0122A4
:100B38001A704A4B1B78032B0DD1464B1B78012B9F
:100B480009D1474B1B780F2B05D1444B04221A704F
:100B5800434B00221A70414B1B78022B02D1434BA6
:100B680001221A703D4B1B78012B4CD13C4B1B7852
:100B7800042B48D1374B1B78012B0ED13C4B4FF03F
:100B880000021A603B4B3C4A1A603C4B1B683C4ACB
:100B980013603C4B1B683C4A13602F4B1B78012B9E
:100BA8000DD1334B394A1A60324B394A1A60394BE6
:100BB8001B68334A1360344B4FF000021A600C2153
:100BC800354802F0F9FE2A4B1B68344A1360334B50
:100BD800D3ED007AB3EE0E7A67EE877AFCEEE77A09
:100BE80017EE903A9AB22E4B1A802D4B1A882A4B40
:100BF8001B681A64194B02221A702A4B00221A70B9
:100C0800174B00221A70164B1B780133DAB2144BBB
:100C18001A707B681B68244A934240F04C81234B2E
:100C28001B88092B4CD8224B1B78002B48D1214B11
:100C38001A88214B1A801F4B1B881A461F4B1B68AA
:100C480013441E4A13601A4B01221A704BE000BF6E
:100C580000140040450300204603002048030020FC
:100C680047030020000C02406D0300206C030020A5
:100C7800600300205C0300200000C8424C030020F1
:100C88006403002050030020680300200000704126
:100C98000000A04254030020C40000205803002094
:100CA8006E03002049030020001000407403002058
:100CB8007C0300207E0300207603002078030020B8
:100CC800814B1B68814A12889B1A814A12881344F7
:100CD8007D4A13607C4B1B687E4AA2FB0323DB081A
:100CE8009AB27A4B1A807C4B1B8801339AB27A4BA2
:100CF8001A80764B1B881846FFF7DEFC70A3D3E9F1
:100D08000023FFF75DFA02460B4610461946FFF727
:100D18003DFD03469AB2714B1A806C4B1A88704B92
:100D28001A806B4B00221A806E4B1B78002B40D028
:100D38006D4B93ED007A6D4BD3ED007AB4EEE77A04
:100D4800F1EE10FA22D5684B93ED007A684BD3ED9B
:100D5800007A77EE277A644BC3ED007A624B93ED05
:100D6800007A624BD3ED007AB4EEE77AF1EE10FA2E
:100D78000CDB5E4B1B685C4A13605E4B03221A70E7
:100D8800584B00221A705C4B00221A70564BD3ED58
:100D9800007AB3EE0E7A67EE877AFCEEE77A17EE02
:100DA800903A9AB2554B1A80544B1A88544B1B6888
:100DB8001A64544B1B78002B41D04B4BD3ED007A6F
:100DC800F5EEC07AF1EE10FA26DD474B93ED007A86
:100DD8004D4BD3ED007A77EE677A434BC3ED007A3B
:100DE800414BD3ED007AF5EEC07AF1EE10FA13D844
:100DF8003D4B4FF000021A603E4B05221A70414BE2
:100E080000221A703C4B00221A70404B00221A70C4
:100E18000C213B4802F098FE334BD3ED007AB3EE39
:100E28000E7A67EE877AFCEEE77A17EE903A9AB276
:100E3800324B1A80314B1A88314B1B681A64344B79
:100E48001B78012B03D0334B1B78012B33D1294B53
:100E58001B78012B03D0274B1B78052B13D12B4B69
:100E68001A781C4BA3FB0213D9080B469B000B44B2
:100E78005B00D31ADBB2002B17D14FF480612648F0
:100E880001F0AFFE11E0214B1A78124BA3FB0213BD
:100E980099080B469B000B44D31ADBB2002B04D1F4
:100EA8004FF480611C4801F09CFE184B1B780133FD
:100EB800DAB2164B1A7000BF0837BD4680BD00BFB6
:100EC800CBA145B6F3FDE83F780300207603002068
:100ED8007E030020CDCCCCCC74030020720300200C
:100EE800700300206C030020580300205C030020DE
:100EF8006403002048030020470300206E030020FD
:100F0800C40000206D03002068030020490300206E
:100F18004503002046030020000C024080B582B043
:100F280000AF01F057FA00F033F900F0BBFC00F015
:100F3800C5F900F06BFA00F0CDFA00F089FB00F07B
:100F4800BDFB00F085FC00F08BF900F057FC00F0C9
:100F580025FB00F02FFC00F0E7FB754802F06CFC65
:100F6800744802F069FC744802F066FC734B4FF059
:100F78007C521A60724B734A1A60734B734A1A6038
:100F880001F09AF90346FB7101F0B8F90346BB7109
:100F98006F4B1B78002B08D04FF400416D4801F0CF
:100FA80020FE42F2107001F087FAFB79002B5CD02A
:100FB800694B1B780133DAB2674B1A70674B1B78A1
:100FC800002B25D1664B1B78002B21D1634B0122C6
:100FD8001A70644B01221A70634B00221A70634B1B
:100FE80000221A70624B00221A80624B00221A807B
:100FF800614B00221A60614B00221A70022001F036
:101008009FF901224FF480515D4801F0D1FD2CE099
:10101800524B1B78012B28D1524B1B78012B24D023
:101028004E4B00221A704F4B00221A70554B00226B
:101038001A70554B00221A70544B4FF000021A6078
:101048003D4B1B6800221A64012001F079F90C213C
:10105800394802F079FD00224FF48051484801F0E8
:10106800A7FD40F6B83001F027FABB79002B87D0EE
:10107800394B1B78013BDAB2374B1A70384B1B7867
:10108800002B25D1354B1B78002B21D1344B012265
:101098001A70344B01221A70334B00221A70334BEA
:1010A80000221A70324B00221A80324B00221A801A
:1010B800314B00221A60314B00221A70022001F0D5
:1010C8003FF901224FF400612D4801F071FD2EE037
:1010D800234B1B78012B7FF453AF224B1B78012B3A
:1010E8003FF44EAF1E4B00221A701E4B00221A709E
:1010F800244B00221A70244B00221A70234B4FF005
:1011080000021A600C4B1B6800221A64012001F0CF
:1011180017F90C21084802F017FD00224FF400616E
:10112800174801F045FD40F6B83001F0C5F927E74A
:10113800E40100209C010020C40000204C03002092
:1011480050030020ABAA2A3F54030020DEDDDD3E19
:101158004A03002000040240440300204503002005
:1011680046030020480300204703002049030020CD
:101178007403002076030020780300207C030020FD
:10118800000C02406C0300206D030020580300206F
:1011980080B594B000AF07F1200330220021184633
:1011A80004F0C4F907F10C0300221A605A609A602F
:1011B800DA601A610023BB60274B1B6C264A43F098
:1011C80080531364244B1B6C03F08053BB60BB68D3
:1011D80000237B60214B1B68204A43F48043136043
:1011E8001E4B1B6803F480437B607B6802233B62D1
:1011F8000123FB6210233B630223BB630023FB63D1
:1012080008233B6454237B640223BB640423FB64EC
:1012180007F12003184601F067FE0346002B01D0B2
:1012280000F07AFC0F23FB6002233B6100237B6103
:101238004FF48053BB610023FB6107F10C030221CB
:10124800184602F0C9F80346002B01D000F064FCF0
:1012580000BF5037BD4680BD0038024000700040D6
:1012680080B500AF124B134A1A60114B124A5A60EC
:101278000F4B00229A600E4B0022DA600C4B4FF4A1
:1012880080421A610A4B00225A61094B00229A6176
:10129800074B0022DA61064B00221A62044801F06B
:1012A800DFFC0346002B01D000F036FC00BF80BDF8
:1012B80028000020005C0040A086010080B592B0A4
:1012C80000AF07F1400300221A605A6007F12403B7
:1012D80000221A605A609A60DA601A615A619A614B
:1012E8003B1D20220021184604F020F9454B464AB0
:1012F8001A60444B04225A60424B00229A60414BC8
:1013080040F6B832DA603F4B00221A613D4B0022AA
:101318005A613C4B00229A613A4802F0FDFA0346B2
:10132800002B01D000F0F8FB00233B6400237B6412
:1013380007F140031946334803F0DEF80346002B53
:1013480001D000F0E9FB60237B620023BB6200232D
:10135800FB6200233B6300237B630023BB63002302
:10136800FB6307F1240300221946264802F064FDB6
:101378000346002B01D000F0CFFB07F12403042221
:101388001946204802F058FD0346002B01D000F012
:10139800C3FB07F12403082219461A4802F04CFD42
:1013A8000346002B01D000F0B7FB07F124030C2201
:1013B8001946144802F040FD0346002B01D000F006
:1013C800ABFB00237B600023BB600023FB60002392
:1013D8003B6100237B614FF40053BB6100233B62F8
:1013E8003B1D1946074803F003F90346002B01D0BB
:1013F80000F092FB034800F021FD00BF4837BD46CE
:1014080080BD00BF7C0000200000014080B58AB08C
:1014180000AF07F1200300221A605A603B1D00222A
:101428001A605A609A60DA601A615A619A61284BA8
:101438004FF080421A60264B04225A60244B002247
:101448009A60234B40F6B832DA60214B00221A61C9
:101458001F4B00229A611E4802F05EFA0346002BD9
:1014680001D000F059FB00233B6200237B6207F1A7
:1014780020031946164803F03FF80346002B01D015
:1014880000F04AFB60237B600023BB600023FB6005
:1014980000237B613B1D082219460D4802F0CCFC55
:1014A8000346002B01D000F037FB3B1D0C221946E8
:1014B800074802F0C1FC0346002B01D000F02CFBCA
:1014C800034800F0BBFC00BF2837BD4680BD00BF05
:1014D800C400002080B58AB000AF07F120030022C5
:1014E8001A605A603B1D00221A605A609A60DA60DE
:1014F8001A615A619A61274B274A1A60254B0422C0
:101508005A60244B00229A60224B40F6B832DA60C7
:10151800204B00221A611F4B00229A611D4802F0DD
:10152800FBF90346002B01D000F0F6FA00233B62DA
:1015380000237B6207F120031946164802F0DCFFFE
:101548000346002B01D000F0E7FA60237B600023FC
:10155800BB600023FB6000237B613B1D082219460A
:101568000C4802F069FC0346002B01D000F0D4FAC5
:101578003B1D0C221946074802F05EFC0346002B6F
:1015880001D000F0C9FA034800F058FC00BF283722
:10159800BD4680BD0C0100200004004080B58AB023
:1015A80000AF07F1200300221A605A603B1D002299
:1015B8001A605A609A60DA601A615A619A61224B1D
:1015C800224A1A60204B40F247325A601E4B0022D2
:1015D8009A601D4B6322DA601B4B00221A611A4B7A
:1015E80000229A61184802F097F90346002B01D0AF
:1015F80000F092FA00233B6280237B6207F120030C
:101608001946114802F078FF0346002B01D000F07C
:1016180083FA60237B600023BB600023FB60002308
:101628007B613B1D0C221946074802F005FC034666
:10163800002B01D000F070FA034800F0FFFB00BF58
:101648002837BD4680BD00BF54010020000C004073
:1016580080B582B000AF3B4600221A605A60154B35
:10166800154A1A60134B42F20F725A60114B00224E
:101678009A60104B40F24732DA600E4B00229A61B2
:101688000C4802F089F80346002B01D000F044FA18
:1016980000233B6000237B603B461946054802F067
:1016A8002BFF0346002B01D000F036FA00BF0837A5
:1016B800BD4680BD9C0100200010004080B582B06E
:1016C80000AF3B4600221A605A60154B154A1A6053
:1016D800134B42F20F725A60114B00229A60104B62
:1016E80042F2CF02DA600E4B00229A610C4802F0F7
:1016F80053F80346002B01D000F00EFA00233B609C
:1017080000237B603B461946054802F0F5FE034678
:10171800002B01D000F000FA00BF0837BD4680BD9D
:10172800E40100200014004080B588B000AF3B1DE4
:1017380000221A605A609A60DA601A615A619A61E6
:101748001A4B1B4A1A60194B42F2CF025A60174BC8
:1017580000229A60154BF922DA60144B00221A61B4
:10176800124B00229A61114802F0D6F80346002B6A
:1017780001D000F0D1F960237B600023BB60002317
:10178800FB6000237B613B1D00221946074802F0DD
:1017980053FB0346002B01D000F0BEF9034800F0CC
:1017A8004DFB00BF2037BD4680BD00BF2C02002086
:1017B8000040014080B500AF0E4B0F4A1A600D4B38
:1017C80040F2F3125A600B4B00229A60094B40F228
:1017D8004F12DA60074B00221A61064B00229A6109
:1017E800044801F0D9FF0346002B01D000F094F91A
:1017F80000BF80BD740200200044014080B500AFE6
:10180800114B124A1A60104B4FF4E1325A600E4BDA
:1018180000229A600C4B0022DA600B4B00221A61FE
:10182800094B0C225A61084B00229A61064B002290
:10183800DA61054802F042FF0346002B01D000F0B0
:101848006BF900BF80BD00BFBC020020004C004007
:1018580080B500AF114B124A1A60104B4FF4E132B9
:101868005A600E4B00229A600C4B0022DA600B4B38
:1018780000221A61094B0C225A61084B00229A6116
:10188800064B0022DA61054802F018FF0346002BD8
:1018980001D000F041F900BF80BD00BF0003002067
:1018A8000010014080B58AB000AF07F11403002290
:1018B8001A605A609A60DA601A6100233B61904BA3
:1018C8001B6B8F4A43F0100313638D4B1B6B03F0A4
:1018D80010033B613B690023FB60894B1B6B884A03
:1018E80043F004031363864B1B6B03F00403FB6094
:1018F800FB680023BB60824B1B6B814A43F00103EA
:1019080013637F4B1B6B03F00103BB60BB680023B1
:101918007B607B4B1B6B7A4A43F002031363784B63
:101928001B6B03F002037B607B6800233B60744BF6
:101938001B6B734A43F008031363714B1B6B03F073
:1019480008033B603B680022F0216E4801F030F943
:1019580000224FF4C0716C4801F02AF900224FF4BC
:1019680070416A4801F024F900224FF4F8516848A0
:1019780001F01EF97F237B614FF44413BB610123FF
:10198800FB6107F1140319465F4800F05DFF4FF44F
:1019980060437B614FF44413BB610123FB6107F192
:1019A800140319465B4800F04FFFF0237B610123C5
:1019B800BB610023FB6100233B6207F11403194656
:1019C800504800F041FF4FF4C0737B610123BB61B5
:1019D8000023FB6100233B6207F1140319464A48C0
:1019E80000F032FF4FF470437B610123BB61002399
:1019F800FB6100233B6207F114031946434800F0DA
:101A080023FF4FF4F8537B610123BB610023FB6183
:101A180000233B6207F1140319463D4800F014FF08
:101A28004CF29F037B610023BB610023FB6107F13C
:101A380014031946364800F007FF4FF482537B61C0
:101A48000023BB610023FB6107F1140319463148E9
:101A580000F0FAFE4FF400437B610023BB610023D2
:101A6800FB6107F114031946264800F0EDFE102328
:101A78007B610023BB610023FB6107F11403194656
:101A8800224800F0E1FE00220021062000F013FEAB
:101A9800062000F02CFE00220021072000F00BFE9B
:101AA800072000F024FE00220021082000F003FE99
:101AB800082000F01CFE00220021092000F0FBFD98
:101AC800092000F014FE002200210A2000F0F3FD96
:101AD8000A2000F00CFE00220021172000F0EBFD88
:101AE800172000F004FE00220021282000F0E3FD6A
:101AF800282000F0FCFD00BF2837BD4680BD00BF90
:101B08000038024000000240001002400004024079
:101B1800000C02400008024080B400AF72B600BF5B
:101B2800FEE7000080B483B000AF00237B60104B59
:101B38005B6C0F4A43F4804353640D4B5B6C03F4B6
:101B480080437B607B6800233B60094B1B6C084A21
:101B580043F080531364064B1B6C03F080533B60C7
:101B68003B6800BF0C37BD465DF8047B704700BF7B
:101B78000038024080B58AB000AF786007F11403DE
:101B880000221A605A609A60DA601A617B681B68E2
:101B9800294A93424BD100233B61284B1B6B274AB0
:101BA80043F004031363254B1B6B03F004033B61F1
:101BB8003B690023FB60214B1B6B204A43F0010368
:101BC80013631E4B1B6B03F00103FB60FB684FF4B0
:101BD80000737B611223BB610123FB6103233B621A
:101BE80004237B6207F114031946154800F02CFE04
:101BF8004FF480737B611223BB610123FB610323D4
:101C08003B6204237B6207F1140319460D4800F078
:101C18001BFE0023BB60094B1B6C084A43F40003FE
:101C28001364064B1B6C03F40003BB60BB6800BF66
:101C38002837BD4680BD00BF005C00400038024028
:101C4800000802400000024080B588B000AF78600C
:101C58007B681B68424A93421ED10023FB61414BBB
:101C68005B6C404A43F0010353643E4B5B6C03F0EA
:101C78000103FB61FB6900220021182000F01BFD15
:101C8800182000F034FD00220021192000F013FD77
:101C9800192000F02CFD5EE07B681B68B3F1804FD3
:101CA8000ED10023BB612F4B1B6C2E4A43F001035E
:101CB80013642C4B1B6C03F00103BB61BB694AE046
:101CC8007B681B68284A93420ED100237B61254B11
:101CD8001B6C244A43F002031364224B1B6C03F071
:101CE80002037B617B6936E07B681B681F4A93426D
:101CF80016D100233B611B4B1B6C1A4A43F00803A7
:101D08001364184B1B6C03F008033B613B6900220A
:101D18000021322000F0CFFC322000F0E8FC1AE06D
:101D28007B681B68124A934215D10023FB600D4B58
:101D38005B6C0C4A43F4803353640A4B5B6C03F4CA
:101D48008033FB60FB6800220021182000F0B3FC00
:101D5800182000F0CCFC00BF2037BD4680BD00BF76
:101D6800000001400038024000040040000C004020
:101D78000040014080B586B000AF78607B681B6882
:101D88002A4A934216D100237B61294B1B6C284AAF
:101D980043F010031364264B1B6C03F010037B61A4
:101DA8007B6900220021362000F085FC362000F0F7
:101DB8009EFC36E07B681B681E4A934216D10023BE
:101DC8003B611B4B1B6C1A4A43F020031364184BEE
:101DD8001B6C03F020033B613B6900220021372084
:101DE80000F069FC372000F082FC1AE07B681B6871
:101DF800114A934215D10023FB600D4B5B6C0C4AD2
:101E080043F4003353640A4B5B6C03F40033FB6008
:101E1800FB6800220021192000F04DFC192000F079
:101E280066FC00BF1837BD4680BD00BF00100040EB
:101E380000380240001400400044014080B58CB0D6
:101E480000AF786007F11C0300221A605A609A609C
:101E5800DA601A617B681B685B4A93421FD10023D2
:101E6800BB615A4B1B6B594A43F010031363574B22
:101E78001B6B03F01003BB61BB694FF4D443FB61D8
:101E880002233B6200237B620023BB620123FB62C7
:101E980007F11C0319464E4800F0D6FC8FE07B681A
:101EA8001B68B3F1804F1FD100237B61474B1B6B2D
:101EB800464A43F002031363444B1B6B03F00203CF
:101EC8007B617B694FF44063FB6102233B62002323
:101ED8007B620023BB620123FB6207F11C031946E6
:101EE8003C4800F0B1FC6AE07B681B683A4A9342C0
:101EF8001ED100233B61354B1B6B344A43F0020370
:101F08001363324B1B6B03F002033B613B690323F2
:101F1800FB6102233B6200237B620023BB62022336
:101F2800FB6207F11C0319462A4800F08DFC46E0C5
:101F38007B681B68294A93421ED10023FB60234B10
:101F48001B6B224A43F001031363204B1B6B03F006
:101F58000103FB60FB680823FB6102233B6200234B
:101F68007B620023BB620223FB6207F11C03194654
:101F78001B4800F069FC22E07B681B68194A934201
:101F88001DD10023BB60114B1B6B104A43F00103AA
:101F980013630E4B1B6B03F00103BB60BB68042388
:101FA800FB6102233B6200237B620023BB620323A5
:101FB800FB6207F11C031946094800F045FC00BF05
:101FC8003037BD4680BD00BF0000014000380240E8
:101FD800001002400004024000040040000C0040D1
:101FE800000002400040014080B58CB000AF78602E
:101FF80007F11C0300221A605A609A60DA601A61BD
:102008007B681B683B4A934235D10023BB613A4B3E
:102018001B6C394A43F400231364374B1B6C03F4DD
:102028000023BB61BB6900237B61334B1B6B324AC6
:1020380043F004031363304B1B6B03F004037B6111
:102048007B694FF44063FB6102233B6200237B62A0
:102058000323BB620823FB6207F11C0319462748C8
:1020680000F0F2FB00220021342000F024FB342091
:1020780000F03DFB39E07B681B68214A934234D16C
:1020880000233B611C4B5B6C1B4A43F010035364F9
:10209800194B5B6C03F010033B613B690023FB6049
:1020A800154B1B6B144A43F001031363124B1B6B54
:1020B80003F00103FB60FB684FF4C063FB6102237C
:1020C8003B6200237B620323BB620723FB6207F1A9
:1020D8001C0319460B4800F0B7FB002200212520FD
:1020E80000F0E9FA252000F002FB00BF3037BD46BA
:1020F80080BD00BF004C004000380240000802408C
:10210800001001400000024080B400AFFEE780B438
:1021180000AFFEE780B400AFFEE780B400AFFEE793
:1021280080B400AFFEE780B400AF00BFBD465DF8E5
:10213800047B704780B400AF00BFBD465DF8047BE8
:10214800704780B400AF00BFBD465DF8047B7047A0
:1021580080B500AF00F090F900BF80BD80B500AF3A
:10216800084B5B6903F00103002B05D0064B1B8865
:1021780001339AB2044B1A80012000F04DFD00BFD4
:1021880080BD00BF003C01407E03002080B500AF49
:10219800022000F041FD00BF80BD80B500AF0420E3
:1021A80000F03AFD00BF80BD80B500AF082000F008
:1021B80033FD00BF80BD80B500AF102000F02CFDBE
:1021C80000BF80BD80B500AF202000F025FD402075
:1021D80000F022FD00BF80BD80B500AF034801F0CC
:1021E80023FD034801F020FD00BF80BD7C000020D6
:1021F8002C02002080B500AF034801F015FD03480C
:1022080001F012FD00BF80BD7C0000207402002098
:1022180080B500AF024802F09FFA00BF80BD00BF42
:102228000003002080B500AF4FF4005000F0F4FC2C
:102238004FF4804000F0F0FC4FF4004000F0ECFC5C
:1022480000BF80BD80B500AF024801F0EDFC00BFC3
:1022580080BD00BF5401002080B500AF024802F0E5
:102268007BFA00BF80BD00BFBC02002080B500AF74
:10227800024801F0D9FC00BF80BD00BF9C010020CE
:1022880080B500AF024801F0CFFC00BF80BD00BFA1
:10229800E401002080B400AF064BD3F88830054A2B
:1022A80043F47003C2F8883000BFBD465DF8047B74
:1022B800704700BF00ED00E080B582B000AF00239A
:1022C800FB714FF400410C4800F05AFC0346002B08
:1022D8000CD1642000F0F0F84FF40041064800F0FB
:1022E8004FFC0346002B01D10123FB71FB791846F3
:1022F8000837BD4680BD00BF0000024080B582B0EF
:1023080000AF0023FB714FF480510C4800F038FCFB
:102318000346002B0CD1642000F0CEF84FF4805116
:10232800064800F02DFC0346002B01D10123FB7168
:10233800FB7918460837BD4680BD00BF000802403B
:1023480080B582B000AF0346FB71FB79012B02D048
:10235800022B07D00DE001224FF40041074800F09E
:1023680027FC06E000224FF40041044800F020FC5E
:1023780000BF00BF0837BD4680BD00BF0004024053
:10238800DFF834D00D480E490E4A002302E0D45835
:10239800C4500433C4188C42F9D30B4A0B4C0023A5
:1023A80001E013600432A242FBD3FFF773FF03F08E
:1023B80099F8FEF7B3FD70470000022000000020E6
:1023C8000C000020845500080C0000208403002025
:1023D800FEE7000080B500AF0E4B1B680D4A43F4C2
:1023E800007313600B4B1B680A4A43F48063136045
:1023F800084B1B68074A43F480731360032000F0FE
:102408004FF9002000F008F8FFF78CFB002318466E
:1024180080BD00BF003C024080B582B000AF78604C
:10242800124B1A68124B1B7819464FF47A73B3FB98
:10243800F1F3B2FBF3F3184600F067F90346002BFB
:1024480001D001230EE07B680F2B0AD8002279689F
:102458004FF0FF3000F02FF9064A7B681360002325
:1024680000E0012318460837BD4680BD0000002063
:10247800080000200400002080B400AF064B1B7841
:102488001A46064B1B681344044A136000BFBD4636
:102498005DF8047B704700BF08000020800300201F
:1024A80080B400AF034B1B681846BD465DF8047B3B
:1024B800704700BF8003002080B584B000AF78600B
:1024C800FFF7EEFFB8607B68FB60FB68B3F1FF3F86
:1024D80005D00A4B1B781A46FB681344FB6000BF03
:1024E800FFF7DEFF0246BB68D31AFA689A42F7D8AC
:1024F80000BF00BF1037BD4680BD00BF08000020E8
:1025080080B485B000AF78607B6803F00703FB6098
:102518000C4BDB68BB60BA684FF6FF031340BB6027
:10252800FB681A02BB68134343F0BF6343F40033EC
:10253800BB60044ABB68D36000BF1437BD465DF872
:10254800047B704700ED00E080B400AF044BDB680B
:102558001B0A03F007031846BD465DF8047B704765
:1025680000ED00E080B483B000AF0346FB7197F93B
:102578000730002B0BDBFB7903F01F02074997F9A3
:1025880007305B09012000FA02F241F8232000BF5E
:102598000C37BD465DF8047B704700BF00E100E0E2
:1025A80080B483B000AF03463960FB7197F90730F8
:1025B800002B0ADB3B68DAB20C4997F907301201A5
:1025C800D2B20B4483F800230AE03B68DAB2084928
:1025D800FB7903F00F03043B1201D2B20B441A76C5
:1025E80000BF0C37BD465DF8047B704700E100E092
:1025F80000ED00E080B489B000AFF860B9607A609F
:10260800FB6803F00703FB61FB69C3F10703042BB5
:1026180028BF0423BB61FB690433062B02D9FB697D
:10262800033B00E000237B614FF0FF32BB6902FAF5
:1026380003F3DA43BB681A407B699A404FF0FF31D5
:102648007B6901FA03F3D9437B680B4013431846AF
:102658002437BD465DF8047B7047000080B582B022
:1026680000AF78607B68013BB3F1807F01D3012321
:102678000FE00A4A7B68013B53600F214FF0FF309F
:10268800FFF78EFF054B00229A60044B07221A6061
:10269800002318460837BD4680BD00BF10E000E0A3
:1026A80080B582B000AF78607868FFF729FF00BF77
:1026B8000837BD4680BD80B586B000AF0346B96017
:1026C8007A60FB7300237B61FFF73EFF78617A68CD
:1026D800B9687869FFF78EFF024697F90F301146FF
:1026E8001846FFF75DFF00BF1837BD4680BD80B5AF
:1026F80082B000AF0346FB7197F907301846FFF721
:1027080031FF00BF0837BD4680BD80B582B000AF3D
:1027180078607868FFF7A2FF034618460837BD4679
:1027280080BD80B584B000AF78607B689B6DFB602E
:10273800FFF7B6FEB8607B6893F83530DBB2022B42
:1027480008D07B6880225A657B68002283F8342091
:10275800012352E07B681B681A687B681B6822F0BB
:1027680016021A607B681B685A697B681B6822F02E
:1027780080025A617B681B6C002B03D17B689B6CC1
:10278800002B07D07B681B681A687B681B6822F0DF
:1027980008021A607B681B681A687B681B6822F04D
:1027A80001021A6013E0FFF77BFE0246BB68D31AEA
:1027B800052B0CD97B6820225A657B68032283F895
:1027C80035207B68002283F83420032315E07B68DA
:1027D8001B681B6803F00103002BE4D17B68DB6DE9
:1027E8003F229A40FB689A607B68012283F8352073
:1027F8007B68002283F83420002318461037BD4632
:1028080080BD80B483B000AF78607B6893F83530C2
:10281800DBB2022B04D07B6880225A6501230CE0CE
:102828007B68052283F835207B681B681A687B68FB
:102838001B6822F001021A60002318460C37BD46B7
:102848005DF8047B7047000080B489B000AF786001
:10285800396000237B6100233B610023BB610023B7
:10286800FB616BE10122FB6902FA03F37B613B68C0
:102878001B687A6913403B613A697B699A4240F068
:102888005A813B685B6803F00303012B05D03B6862
:102898005B6803F00303022B30D17B689B68BB6144
:1028A800FB695B00032202FA03F3DB43BA691340B6
:1028B800BB613B68DA68FB695B0002FA03F3BA693B
:1028C8001343BB617B68BA699A607B685B68BB61CC
:1028D8000122FB6902FA03F3DB43BA691340BB61C7
:1028E8003B685B681B0903F00102FB6902FA03F30A
:1028F800BA691343BB617B68BA695A603B685B6815
:1029080003F00303032B17D07B68DB68BB61FB690B
:102918005B00032202FA03F3DB43BA691340BB618D
:102928003B689A68FB695B0002FA03F3BA691343D0
:10293800BB617B68BA69DA603B685B6803F00303D4
:10294800022B23D1FB69DA087B68083253F822305E
:10295800BB61FB6903F007039B000F2202FA03F334
:10296800DB43BA691340BB613B681A69FB6903F032
:1029780007039B0002FA03F3BA691343BB61FB69BF
:10298800DA087B680832B96943F822107B681B684B
:10299800BB61FB695B00032202FA03F3DB43BA69FC
:1029A8001340BB613B685B6803F00302FB695B0093
:1029B80002FA03F3BA691343BB617B68BA691A6008
:1029C8003B685B6803F44033002B00F0B4800023BD
:1029D800FB60604B5B6C5F4A43F4804353645D4B20
:1029E8005B6C03F48043FB60FB685B4AFB699B08F4
:1029F800023352F82330BB61FB6903F003039B00E9
:102A08000F2202FA03F3DB43BA691340BB617B6808
:102A1800524A93422BD07B68514A934225D07B6817
:102A2800504A93421FD07B684F4A934219D07B6823
:102A38004E4A934213D07B684D4A93420DD07B682F
:102A48004C4A934207D07B684B4A934201D10723F3
:102A58000EE008230CE006230AE0052308E004231F
:102A680006E0032304E0022302E0012300E0002340
:102A7800FA6902F0030292009340BA691343BB61FA
:102A88003549FB699B080233BA6941F823203B4B5F
:102A98009B68BB613B69DB43BA691340BB613B6818
:102AA8005B6803F48013002B03D0BA693B691343B6
:102AB800BB61324ABB699360304BDB68BB613B69E1
:102AC800DB43BA691340BB613B685B6803F40013DE
:102AD800002B03D0BA693B691343BB61274ABB6922
:102AE800D360264B5B68BB613B69DB43BA69134023
:102AF800BB613B685B6803F40033002B03D0BA6901
:102B08003B691343BB611D4ABB6953601B4B1B6880
:102B1800BB613B69DB43BA691340BB613B685B68D7
:102B280003F48033002B03D0BA693B691343BB61BC
:102B3800124ABB691360FB690133FB61FB690F2B08
:102B48007FF690AE00BF00BF2437BD465DF8047B1A
:102B5800704700BF003802400038014000000240C2
:102B68000004024000080240000C0240001002402D
:102B78000014024000180240001C0240003C0140C2
:102B880080B485B000AF78600B467B807B681A699B
:102B98007B881340002B02D00123FB7301E0002344
:102BA800FB73FB7B18461437BD465DF8047B704702
:102BB80080B483B000AF78600B467B8013467B708F
:102BC8007B78002B03D07A887B689A6103E07B8846
:102BD8001A047B689A6100BF0C37BD465DF8047B18
:102BE800704780B485B000AF78600B467B807B6807
:102BF8005B69FB607A88FB6813401A04FB68D94359
:102C08007B880B401A437B689A6100BF1437BD4626
:102C18005DF8047B7047000080B582B000AF0346C2
:102C2800FB80084B5A69FB881340002B06D0054AE5
:102C3800FB885361FB88184600F006F800BF083788
:102C4800BD4680BD003C014080B483B000AF034660
:102C5800FB8000BF0C37BD465DF8047B7047000061
:102C680080B584B000AF78607B68002B01D1012368
:102C78002BE17B6893F83D30DBB2002B06D17B68F3
:102C8800002283F83C207868FEF774FF7B682422D2
:102C980083F83D207B681B681A687B681B6822F0F4
:102CA80001021A607B681B681A687B681B6842F41B
:102CB80000421A607B681B681A687B681B6822F4EC
:102CC80000421A6000F040FDF8607B685B68814A4A
:102CD800934207D8FB68804A934294BF012300239C
:102CE800DBB206E0FB687D4A934294BF01230023D0
:102CF800DBB2002B01D00123E7E0FB68784AA2FB96
:102D080003239B0CBB607B681B685B6823F03F0157
:102D18007B681B68BA680A435A607B681B681B6A31
:102D280023F03F017B685B686A4A934202D8BB681C
:102D3800013309E0BB684FF4967202FB03F3694A5A
:102D4800A2FB03239B0901337A6812680B431362C1
:102D58007B681B68DB6923F44F4222F0FF027B6823
:102D68005B685C498B4219D8FB68591E7B685B68B5
:102D78005B00B1FBF3F3591C40F6FC730B40002BCE
:102D88000AD0FB68591E7B685B685B00B1FBF3F3F4
:102D98000133C3F30B0351E004234FE07B689B68C6
:102DA800002B11D1FB68581E7B6859680B465B00E5
:102DB8000B44B0FBF3F30133C3F30B03002B0CBF3D
:102DC80001230023DBB212E0FB68581E7B685968B8
:102DD8000B469B000B4499000B44B0FBF3F3013303
:102DE800C3F30B03002B0CBF01230023DBB2002B22
:102DF80001D0012322E07B689B68002B0ED1FB6881
:102E0800581E7B6859680B465B000B44B0FBF3F314
:102E18000133C3F30B0343F400430FE0FB68581E70
:102E28007B6859680B469B000B4499000B44B0FB28
:102E3800F3F30133C3F30B0343F4404379680968A0
:102E48001343CB617B681B681B6823F0C0017B6858
:102E5800DA697B681B6A1A437B681B680A431A6035
:102E68007B681B689B6823F4034323F0FF037A689D
:102E780011697A68D26811437A6812680B439360C3
:102E88007B681B68DB6823F0FF017B685A697B68F5
:102E98009B691A437B681B680A43DA607B681B6876
:102EA8001A687B681B6842F001021A607B6800227E
:102EB8001A647B68202283F83D207B6800221A630D
:102EC8007B68002283F83E20002318461037BD4651
:102ED80080BD00BFA08601007F841E00FF083D0062
:102EE80083DE1B43D34D621080B586B000AF786097
:102EF8007B68002B01D1012367E27B681B6803F024
:102F08000103002B75D0884B9B6803F00C03042B3E
:102F18000CD0854B9B6803F00C03082B12D1824B15
:102F28005B6803F48003B3F5800F0BD17E4B1B68FD
:102F380003F40033002B5BD07B685B68002B57D110
:102F4800012342E27B685B68B3F5803F06D1764B8C
:102F58001B68754A43F4803313601DE07B685B6827
:102F6800B3F5A02F0CD1704B1B686F4A43F4802334
:102F780013606D4B1B686C4A43F4803313600BE09D
:102F8800694B1B68684A23F480331360664B1B68DF
:102F9800654A23F4802313607B685B68002B13D099
:102FA800FFF77EFA386108E0FFF77AFA02463B69D4
:102FB800D31A642B01D9032307E25B4B1B6803F484
:102FC8000033002BF0D014E0FFF76AFA386108E00C
:102FD800FFF766FA02463B69D31A642B01D903232B
:102FE800F3E1514B1B6803F40033002BF0D100E0F0
:102FF80000BF7B681B6803F00203002B63D04A4BB9
:103008009B6803F00C03002B0BD0474B9B6803F025
:103018000C03082B1CD1444B5B6803F48003002B82
:1030280016D1414B1B6803F00203002B05D07B68C7
:10303800DB68012B01D00123C7E13B4B1B6823F060
:10304800F8027B681B69DB00374913430B603AE0E1
:103058007B68DB68002B20D0344B01221A60FFF715
:103068001FFA386108E0FFF71BFA02463B69D31ADA
:10307800022B01D90323A8E12B4B1B6803F00203A1
:10308800002BF0D0284B1B6823F0F8027B681B69E3
:10309800DB00254913430B6015E0244B00221A601E
:1030A800FFF7FEF9386108E0FFF7FAF902463B69D5
:1030B800D31A022B01D9032387E11B4B1B6803F0AA
:1030C8000203002BF0D17B681B6803F00803002B78
:1030D80036D07B685B69002B16D0154B01221A602D
:1030E800FFF7DEF9386108E0FFF7DAF902463B69D5
:1030F800D31A022B01D9032367E10B4B5B6F03F053
:103108000203002BF0D01BE0094B00221A60FFF7E6
:10311800C7F938610EE0FFF7C3F902463B69D31AD5
:10312800022B07D9032350E1003802400000474230
:10313800800E4742884B5B6F03F00203002BEAD1F5
:103148007B681B6803F00403002B00F097800023C2
:10315800FB75814B1B6C03F08053002B0FD10023B0
:10316800BB607D4B1B6C7C4A43F0805313647A4BE5
:103178001B6C03F08053BB60BB680123FB75774B66
:103188001B6803F48073002B18D1744B1B68734AB7
:1031980043F480731360FFF783F9386108E0FFF7A1
:1031A8007FF902463B69D31A022B01D903230CE1AC
:1031B8006A4B1B6803F48073002BF0D07B689B6814
:1031C800012B06D1644B1B6F634A43F0010313675D
:1031D8001CE07B689B68052B0CD15F4B1B6F5E4A1C
:1031E80043F0040313675C4B1B6F5B4A43F0010316
:1031F80013670BE0584B1B6F574A23F00103136703
:10320800554B1B6F544A23F0040313677B689B6874
:10321800002B15D0FFF744F938610AE0FFF740F9B1
:1032280002463B69D31A41F28832934201D90323FB
:10323800CBE0494B1B6F03F00203002BEED014E0E8
:10324800FFF72EF938610AE0FFF72AF902463B69D1
:10325800D31A41F28832934201D90323B5E03E4B99
:103268001B6F03F00203002BEED1FB7D012B05D170
:10327800394B1B6C384A23F0805313647B689B6975
:10328800002B00F0A180344B9B6803F00C03082B43
:103298005CD07B689B69022B41D1314B00221A60BC
:1032A800FFF7FEF8386108E0FFF7FAF802463B69D5
:1032B800D31A022B01D9032387E0274B1B6803F09D
:1032C8000073002BF0D17B68DA697B681B6A1A43AC
:1032D8007B685B6A9B011A437B689B6A5B08013BBE
:1032E8001B041A437B68DB6A1B061B4913434B60AC
:1032F8001B4B01221A60FFF7D3F8386108E0FFF78B
:10330800CFF802463B69D31A022B01D903235CE0AC
:10331800114B1B6803F00073002BF0D054E0104BE6
:1033280000221A60FFF7BCF8386108E0FFF7B8F828
:1033380002463B69D31A022B01D9032345E0064B09
:103348001B6803F00073002BF0D13DE07B689B699C
:10335800012B07D1012338E00038024000700040FB
:10336800600047421B4B5B68FB607B689B69012BD5
:1033780028D0FB6803F480027B68DB699A4221D17C
:10338800FB6803F03F027B681B6A9A421AD1FA680D
:1033980047F6C07313407A68526A9201934211D17A
:1033A800FB6803F440327B689B6A5B08013B1B04A3
:1033B8009A4207D1FB6803F070627B68DB6A1B06E0
:1033C8009A4201D0012300E0002318461837BD4671
:1033D80080BD00BF0038024080B584B000AF78607F
:1033E80039607B68002B01D10123CCE0684B1B6856
:1033F80003F007033A689A420CD9654B3A68D2B28F
:103408001A70634B1B6803F007033A689A4201D0AD
:103418000123B8E07B681B6803F00203002B20D06F
:103428007B681B6803F00403002B05D0594B9B688D
:10343800584A43F4E05393607B681B6803F0080321
:10344800002B05D0534B9B68524A43F4604393606A
:10345800504B9B6823F0F0027B689B684D491343EF
:103468008B607B681B6803F00103002B44D07B68EA
:103478005B68012B07D1474B1B6803F40033002B13
:1034880019D101237FE07B685B68022B03D07B683E
:103498005B68032B07D13F4B1B6803F00073002BBD
:1034A80009D101236FE03B4B1B6803F00203002B9B
:1034B80001D1012367E0374B9B6823F003027B6847
:1034C8005B68344913438B60FEF7EAFFF8600AE053
:1034D800FEF7E6FF0246FB68D31A41F288329342B0
:1034E80001D903234FE02B4B9B6803F00C027B6848
:1034F8005B689B009A42EBD1254B1B6803F00703DE
:103508003A689A420CD2224B3A68D2B21A70204BCF
:103518001B6803F007033A689A4201D0012332E09E
:103528007B681B6803F00403002B08D0194B9B68C9
:1035380023F4E0527B68DB68164913438B607B6891
:103548001B6803F00803002B09D0124B9B6823F477
:1035580060427B681B69DB000E4913438B6000F0F7
:1035680021F802460B4B9B681B0903F00F030A491D
:10357800CB5C22FA03F3094A1360094B1B6818460F
:10358800FEF74AFF002318461037BD4680BD00BF2E
:10359800003C0240003802405C5500080000002052
:1035A800040000202DE9B04F90B000AF00237B63EA
:1035B8000023FB6300233B630023BB63594B9B68D9
:1035C80003F00C03082B0DD0082B00F2A180002B70
:1035D80002D0042B03D09BE0534BBB639BE0534BBF
:1035E800BB6398E04F4B5B6803F03F037B634D4B35
:1035F8005B6803F48003002B28D04A4B5B689B0967
:1036080000223B627A623B6AC3F308000021474B01
:1036180003FB01F2002300FB03F31344434AA0FB1E
:103628000212FA620A46BA62FA6A1344FB627B6BB8
:103638000022BB61FA61D7E90623D7E90A01FDF741
:10364800C5F802460B461346FB6353E0354B5B68EF
:103658009B0900223B617A613B69C3F3080A4FF07A
:10366800000B52465B464FF000004FF00001590135
:1036780041EAD261500102460B46B2EB0A0863EBFD
:103688000B094FF000024FF000034FEA891343EA99
:1036980098634FEA8812B2EB080463EB09054FF010
:1036A80000024FF00003EB0043EA5473E2001446B3
:1036B8001D4614EB0A033B6045EB0B037B604FF0A0
:1036C80000024FF00003D7E9004529468B02214646
:1036D80043EA915321468A02104619467B6B002221
:1036E800BB60FA60D7E90223FDF770F802460B4683
:1036F8001346FB630B4B5B681B0C03F0030301339E
:103708005B003B63FA6B3B6BB2FBF3F3BB6302E01A
:10371800054BBB6300BFBB6B18464037BD46BDE8D1
:10372800B08F00BF003802400024F40040787D01CB
:1037380080B400AF034B1B681846BD465DF8047B98
:10374800704700BF0000002080B500AFFFF7F0FF12
:103758000246054B9B689B0A03F007030349CB5CB1
:1037680022FA03F3184680BD003802406C55000861
:1037780080B500AFFFF7DCFF0246054B9B685B0B8B
:1037880003F007030349CB5C22FA03F3184680BD14
:10379800003802406C55000880B582B000AF7860F0
:1037A8007B68002B01D1012341E07B6893F83D3011
:1037B800DBB2002B06D17B68002283F83C207868B6
:1037C800FEF7D8FA7B68022283F83D207B681A68E6
:1037D8007B6804331946104600F018FC7B68012208
:1037E80083F846207B68012283F83E207B6801220B
:1037F80083F83F207B68012283F840207B68012200
:1038080083F841207B68012283F842207B680122EB
:1038180083F843207B68012283F844207B680122D7
:1038280083F845207B68012283F83D200023184651
:103838000837BD4680BD000080B485B000AF786011
:103848007B6893F83D30DBB2012B01D001234EE0B9
:103858007B68022283F83D207B681B68DA687B68F6
:103868001B6842F00102DA607B681B68234A9342B6
:1038780022D07B681B68B3F1804F1DD07B681B6822
:103888001F4A934218D07B681B681E4A934213D084
:103898007B681B681C4A93420ED07B681B681B4AD6
:1038A800934209D07B681B68194A934204D07B680D
:1038B8001B68184A934211D17B681B689B6803F008
:1038C8000703FB60FB68062B10D07B681B681A682F
:1038D8007B681B6842F001021A6007E07B681B687E
:1038E8001A687B681B6842F001021A6000231846B8
:1038F8001437BD465DF8047B704700BF00000140E7
:103908000004004000080040000C00400004014092
:10391800004001400018004080B582B000AF7860D8
:103928007B68002B01D1012341E07B6893F83D308F
:10393800DBB2002B06D17B68002283F83C20786834
:10394800FEF782F97B68022283F83D207B681A68BB
:103958007B6804331946104600F058FB7B68012247
:1039680083F846207B68012283F83E207B68012289
:1039780083F83F207B68012283F840207B6801227E
:1039880083F841207B68012283F842207B6801226A
:1039980083F843207B68012283F844207B68012256
:1039A80083F845207B68012283F83D2000231846D0
:1039B8000837BD4680BD000080B584B000AF786090
:1039C80039603B68002B09D17B6893F83E30DBB245
:1039D800012B14BF01230023DBB222E03B68042B38
:1039E80009D17B6893F83F30DBB2012B14BF012368
:1039F8000023DBB215E03B68082B09D17B6893F8FC
:103A08004030DBB2012B14BF01230023DBB208E0F6
:103A18007B6893F84130DBB2012B14BF01230023EC
:103A2800DBB2002B01D001237CE03B68002B04D1E2
:103A38007B68022283F83E2013E03B68042B04D104
:103A48007B68022283F83F200BE03B68082B04D1F7
:103A58007B68022283F8402003E07B68022283F817
:103A680041207B681B6801223968184600F01EFD5A
:103A78007B681B682D4A934204D07B681B682C4ADC
:103A8800934201D1012300E00023002B07D07B687B
:103A98001B685A6C7B681B6842F400425A647B6856
:103AA8001B68224A934222D07B681B68B3F1804F7F
:103AB8001DD07B681B681F4A934218D07B681B681F
:103AC8001D4A934213D07B681B681C4A93420ED050
:103AD8007B681B68164A934209D07B681B68184AA2
:103AE800934204D07B681B68164A934211D17B68C5
:103AF8001B689B6803F00703FB60FB68062B10D06C
:103B08007B681B681A687B681B6842F001021A60B0
:103B180007E07B681B681A687B681B6842F0010233
:103B28001A60002318461037BD4680BD00000140CA
:103B3800000401400004004000080040000C004060
:103B4800004001400018004080B582B000AF7860A6
:103B580039607B681B6800223968184600F0A6FCAB
:103B68007B681B682E4A934204D07B681B682D4AE9
:103B7800934201D1012300E00023002B17D07B687A
:103B88001B681A6A41F211131340002B0FD17B688E
:103B98001B681A6A40F244431340002B07D17B6824
:103BA8001B685A6C7B681B6822F400425A647B6865
:103BB8001B681A6A41F211131340002B0FD17B685E
:103BC8001B681A6A40F244431340002B07D17B68F4
:103BD8001B681A687B681B6822F001021A603B6840
:103BE800002B04D17B68012283F83E2013E03B6858
:103BF800042B04D17B68012283F83F200BE03B684B
:103C0800082B04D17B68012283F8402003E07B68FD
:103C1800012283F84120002318460837BD4680BD9D
:103C2800000001400004014080B582B000AF786018
:103C38007B681B681B6903F00203022B22D17B6897
:103C48001B68DB6803F00203022B1BD17B681B682F
:103C58006FF002021A617B6801221A777B681B6881
:103C68009B6903F00303002B03D0786800F0B0F9D8
:103C780005E0786800F0A2F9786800F0B3F97B688D
:103C880000221A777B681B681B6903F00403042B66
:103C980022D17B681B68DB6803F00403042B1BD16B
:103CA8007B681B686FF004021A617B6802221A772E
:103CB8007B681B689B6903F44073002B03D078680A
:103CC80000F086F905E0786800F078F9786800F087
:103CD80089F97B6800221A777B681B681B6903F0E7
:103CE8000803082B22D17B681B68DB6803F00803F4
:103CF800082B1BD17B681B686FF008021A617B6870
:103D080004221A777B681B68DB6903F00303002B26
:103D180003D0786800F05CF905E0786800F04EF9A7
:103D2800786800F05FF97B6800221A777B681B6867
:103D38001B6903F01003102B22D17B681B68DB681A
:103D480003F01003102B1BD17B681B686FF0100267
:103D58001A617B6808221A777B681B68DB6903F4A1
:103D68004073002B03D0786800F032F905E07868DA
:103D780000F024F9786800F035F97B6800221A779A
:103D88007B681B681B6903F00103012B0ED17B685C
:103D98001B68DB6803F00103012B07D17B681B68F4
:103DA8006FF001021A617868FCF792FE7B681B6865
:103DB8001B6903F08003802B0ED17B681B68DB68CE
:103DC80003F08003802B07D17B681B686FF08002AB
:103DD8001A61786800F068FC7B681B681B6903F04F
:103DE8004003402B0ED17B681B68DB6803F040035F
:103DF800402B07D17B681B686FF040021A61786816
:103E080000F0FAF87B681B681B6903F02003202B7D
:103E18000ED17B681B68DB6803F02003202B07D1D9
:103E28007B681B686FF020021A61786800F032FC2A
:103E380000BF0837BD4680BD80B586B000AFF860CA
:103E4800B9607A600023FB75FB6893F83C30012B5E
:103E580001D10223AEE0FB68012283F83C207B6895
:103E68000C2B00F29F8001A252F823F0A93E000813
:103E7800AD3F0008AD3F0008AD3F0008E93E00082F
:103E8800AD3F0008AD3F0008AD3F00082B3F0008DC
:103E9800AD3F0008AD3F0008AD3F00086B3F00088C
:103EA800FB681B68B968184600F050F9FB681B6886
:103EB8009A69FB681B6842F008029A61FB681B68F4
:103EC8009A69FB681B6822F004029A61FB681B6808
:103ED8009969BB681A69FB681B680A439A6164E0C0
:103EE800FB681B68B968184600F0A0F9FB681B68F6
:103EF8009A69FB681B6842F400629A61FB681B6858
:103F08009A69FB681B6822F480629A61FB681B68E7
:103F18009969BB681B691A02FB681B680A439A61A6
:103F280043E0FB681B68B968184600F0F5F9FB68C0
:103F38001B68DA69FB681B6842F00802DA61FB68F3
:103F48001B68DA69FB681B6822F00402DA61FB6807
:103F58001B68D969BB681A69FB681B680A43DA6180
:103F680023E0FB681B68B968184600F049FAFB684B
:103F78001B68DA69FB681B6842F40062DA61FB6857
:103F88001B68DA69FB681B6822F48062DA61FB68E7
:103F98001B68D969BB681B691A02FB681B680A435E
:103FA800DA6102E00123FB7500BFFB68002283F899
:103FB8003C20FB7D18461837BD4680BD80B483B0D1
:103FC80000AF786000BF0C37BD465DF8047B7047D2
:103FD80080B483B000AF786000BF0C37BD465DF891
:103FE800047B704780B483B000AF786000BF0C37A3
:103FF800BD465DF8047B704780B483B000AF78603D
:1040080000BF0C37BD465DF8047B704780B485B0AF
:1040180000AF786039607B681B68FB607B68404A4A
:10402800934213D07B68B3F1804F0FD07B683D4A31
:1040380093420BD07B683C4A934207D07B683B4A4B
:10404800934203D07B683A4A934208D1FB6823F035
:104058007003FB603B685B68FA681343FB607B682E
:104068002F4A93422BD07B68B3F1804F27D07B68CF
:104078002C4A934223D07B682B4A93421FD07B68FB
:104088002A4A93421BD07B68294A934217D07B68FF
:10409800284A934213D07B68274A93420FD07B6803
:1040A800264A93420BD07B68254A934207D07B6807
:1040B800244A934203D07B68234A934208D1FB6881
:1040C80023F44073FB603B68DB68FA681343FB60CA
:1040D800FB6823F080023B685B691343FB607B68E5
:1040E800FA681A603B689A687B68DA623B681A6803
:1040F8007B689A627B680A4A934203D07B680C4AC1
:10410800934203D13B681A697B681A637B68012272
:104118005A6100BF1437BD465DF8047B704700BF85
:10412800000001400004004000080040000C00406E
:1041380000040140004001400044014000480140A3
:1041480000180040001C00400020004080B487B0E8
:1041580000AF786039607B681B6A23F001027B68D6
:104168001A627B681B6A7B617B685B683B617B6862
:104178009B69FB60FB6823F07003FB60FB6823F01E
:104188000303FB603B681B68FA681343FB607B69A9
:1041980023F002037B613B689B687A6913437B6168
:1041A8007B68204A934203D07B681F4A93420CD114
:1041B8007B6923F008037B613B68DB687A691343FA
:1041C8007B617B6923F004037B617B68154A93421A
:1041D80003D07B68144A934211D13B6923F480735E
:1041E8003B613B6923F400733B613B685B693A6957
:1041F80013433B613B689B693A6913433B617B68A6
:104208003A695A607B68FA689A613B685A687B68C1
:104218005A637B687A691A6200BF1C37BD465DF82D
:10422800047B7047000001400004014080B487B05F
:1042380000AF786039607B681B6A23F010027B68E6
:104248001A627B681B6A7B617B685B683B617B6881
:104258009B69FB60FB6823F4E043FB60FB6823F485
:104268004073FB603B681B681B02FA681343FB60E2
:104278007B6923F020037B613B689B681B017A699B
:1042880013437B617B68224A934203D07B68214AAF
:1042980093420DD17B6923F080037B613B68DB6827
:1042A8001B017A6913437B617B6923F040037B61BF
:1042B8007B68174A934203D07B68164A934213D10E
:1042C8003B6923F480633B613B6923F400633B61F2
:1042D8003B685B699B003A6913433B613B689B6998
:1042E8009B003A6913433B617B683A695A607B6873
:1042F800FA689A613B685A687B689A637B687A694E
:104308001A6200BF1C37BD465DF8047B704700BFCA
:10431800000001400004014080B487B000AF78601D
:1043280039607B681B6A23F480727B681A627B6839
:104338001B6A7B617B685B683B617B68DB69FB6050
:10434800FB6823F07003FB60FB6823F00303FB604A
:104358003B681B68FA681343FB607B6923F40073AE
:104368007B613B689B681B027A6913437B617B68AE
:10437800214A934203D07B68204A93420DD17B693E
:1043880023F400637B613B68DB681B027A69134393
:104398007B617B6923F480637B617B68164A934267
:1043A80003D07B68154A934213D13B6923F48053A9
:1043B8003B613B6923F400533B613B685B691B012C
:1043C8003A6913433B613B689B691B013A69134394
:1043D8003B617B683A695A607B68FA68DA613B68D6
:1043E8005A687B68DA637B687A691A6200BF1C378F
:1043F800BD465DF8047B70470000014000040140A1
:1044080080B487B000AF786039607B681B6A23F49A
:1044180080527B681A627B681B6A3B617B685B68B9
:104428007B617B68DB69FB60FB6823F4E043FB602E
:10443800FB6823F44073FB603B681B681B02FA6847
:104448001343FB603B6923F400533B613B689B6863
:104458001B033A6913433B617B68124A934203D0BA
:104468007B68114A934209D17B6923F480437B61BD
:104478003B685B699B017A6913437B617B687A6956
:104488005A607B68FA68DA613B685A687B681A6424
:104498007B683A691A6200BF1C37BD465DF8047B29
:1044A800704700BF000001400004014080B487B09D
:1044B80000AFF860B9607A60BB6803F01F0301229F
:1044C80002FA03F37B61FB681A6A7B69DB431A40D3
:1044D800FB681A62FB681A6ABB6803F01F037968F5
:1044E80001FA03F31A43FB681A6200BF1C37BD4682
:1044F8005DF8047B7047000080B485B000AF786039
:1045080039607B6893F83C30012B01D102235AE0D3
:104518007B68012283F83C207B68022283F83D20D7
:104528007B681B685B68FB607B681B689B68BB607B
:10453800FB6823F07003FB603B681B68FA68134351
:10454800FB607B681B68FA685A607B681B68214AB5
:10455800934222D07B681B68B3F1804F1DD07B68E3
:104568001B681D4A934218D07B681B681B4A9342FC
:1045780013D07B681B681A4A93420ED07B681B686D
:10458800184A934209D07B681B68174A934204D0A3
:104598007B681B68154A93420CD1BB6823F08003E3
:1045A800BB603B685B68BA681343BB607B681B6889
:1045B800BA689A607B68012283F83D207B680022F4
:1045C80083F83C20002318461437BD465DF8047B69
:1045D800704700BF00000140000400400008004090
:1045E800000C004000040140004001400018004059
:1045F80080B485B000AF786039600023FB607B68C9
:1046080093F83C30012B01D102233DE07B68012265
:1046180083F83C20FB6823F0FF023B68DB68134308
:10462800FB60FB6823F440723B689B681343FB60A4
:10463800FB6823F480623B685B681343FB60FB689C
:1046480023F400623B681B681343FB60FB6823F498
:1046580080523B681B691343FB60FB6823F40052DC
:104668003B685B691343FB60FB6823F480423B684B
:10467800DB691343FB607B681B68FA685A647B68D4
:10468800002283F83C20002318461437BD465DF805
:10469800047B704780B483B000AF786000BF0C37EC
:1046A800BD465DF8047B704780B483B000AF786086
:1046B80000BF0C37BD465DF8047B704780B582B0FB
:1046C80000AF78607B68002B01D101233FE07B6855
:1046D80093F83D30DBB2002B06D17B68002283F8CB
:1046E8003C207868FDF780FC7B68242283F83D2015
:1046F8007B681B68DA687B681B6822F40052DA6002
:10470800786800F07BFC7B681B681A697B681B680B
:1047180022F490421A617B681B685A697B681B689F
:1047280022F02A025A617B681B68DA687B681B687A
:1047380042F40052DA607B6800221A647B68202207
:1047480083F83D207B68202283F83E20002318460A
:104758000837BD4680BD000080B5BAB000AF7860AC
:104768007B681B681B68C7F8E4307B681B68DB68DC
:10477800C7F8E0307B681B685B69C7F8DC3000234A
:10478800C7F8D8300023C7F8D430D7F8E43003F09E
:104798000F03C7F8D830D7F8D830002B0FD1D7F887
:1047A800E43003F02003002B09D0D7F8E03003F001
:1047B8002003002B03D0786800F065FB56E2D7F899
:1047C800D830002B00F0DE80D7F8DC3003F001038E
:1047D800002B06D1D7F8E03003F49073002B00F0DB
:1047E800D180D7F8E43003F00103002B0BD0D7F8C1
:1047F800E03003F48073002B05D07B681B6C43F01A
:1048080001027B681A64D7F8E43003F00403002B34
:104818000BD0D7F8DC3003F00103002B05D07B6800
:104828001B6C43F002027B681A64D7F8E43003F08B
:104838000203002B0BD0D7F8DC3003F00103002B68
:1048480005D07B681B6C43F004027B681A64D7F8B8
:10485800E43003F00803002B11D0D7F8E03003F060
:104868002003002B05D1D7F8DC3003F00103002B1F
:1048780005D07B681B6C43F008027B681A647B6870
:104888001B6C002B00F0ED81D7F8E43003F0200317
:10489800002B08D0D7F8E03003F02003002B02D01B
:1048A800786800F0F0FA7B681B685B6903F04003E6
:1048B800402B0CBF01230023DBB2C7F8D4307B6840
:1048C8001B6C03F00803002B03D1D7F8D430002B5E
:1048D8004FD0786800F0F8F97B681B685B6903F0D3
:1048E8004003402B41D17B681B681433C7F89C30C8
:1048F800D7F89C3053E8003FC7F89830D7F898307D
:1049080023F04003C7F8D0307B681B681433D7F80E
:10491800D020C7F8A820C7F8A430D7F8A410D7F833
:10492800A82041E80023C7F8A030D7F8A030002B12
:10493800D9D17B689B6B002B13D07B689B6B7D4A1E
:104948001A657B689B6B1846FDF75BFF0346002BD7
:1049580016D07B689B6B1B6D7A68926B10469847E4
:104968000EE0786800F09AF90AE0786800F096F9A5
:1049780006E0786800F092F97B6800221A6470E11A
:1049880000BF6EE17B681B6B012B40F04A81D7F8B2
:10499800E43003F01003002B00F04381D7F8E03037
:1049A80003F01003002B00F03C810023BB607B6800
:1049B8001B681B68BB607B681B685B68BB60BB6867
:1049C8007B681B685B6903F04003402B40F0B480B0
:1049D8007B689B6B1B685B68A7F8BE30B7F8BE3076
:1049E800002B00F040817B689B8DB7F8BE209A426F
:1049F80080F039817B68B7F8BE20DA857B689B6BCD
:104A0800DB69B3F5807F00F088807B681B680C3316
:104A1800C7F88830D7F8883053E8003FC7F88430A3
:104A2800D7F8843023F48073C7F8B8307B681B68E4
:104A38000C33D7F8B820C7F89420C7F89030D7F8C7
:104A48009010D7F8942041E80023C7F88C30D7F8A5
:104A58008C30002BD9D17B681B6814337B677B6F44
:104A680053E8003F3B673B6F23F00103C7F8B430BE
:104A78007B681B681433D7F8B420C7F88020FB671D
:104A8800F96FD7F8802041E80023BB67BB6F002B84
:104A9800E1D17B681B6814333B663B6E53E8003FEB
:104AA800FB65FB6D23F04003C7F8B0307B681B68DB
:104AB8001433D7F8B020FA66BB66B96EFA6E41E8CF
:104AC80000237B667B6E002BE3D17B68202283F872
:104AD8003E207B6800221A637B681B680C33FB64EA
:104AE800FB6C53E8003FBB64BB6C23F01003C7F8B2
:104AF800AC307B681B680C33D7F8AC20BA657B6593
:104B0800796DBA6D41E800233B653B6D002BE3D11D
:104B18007B689B6B1846FDF704FE7B689A8D7B6863
:104B2800DB8D9BB2D31A9BB21946786800F0C0F8A7
:104B380099E000BF974D00087B689A8D7B68DB8DF4
:104B48009BB2D31AA7F8CE307B68DB8D9BB2002BC3
:104B580000F08B80B7F8CE30002B00F086807B68A1
:104B68001B680C33BB63BB6B53E8003F7B637B6BF9
:104B780023F49073C7F8C8307B681B680C33D7F8E8
:104B8800C8207A643B64396C7A6C41E80023FB6383
:104B9800FB6B002BE3D17B681B6814337B627B6A59
:104BA80053E8003F3B623B6A23F00103C7F8C43077
:104BB8007B681B681433D7F8C4203A63FB62F96A30
:104BC8003A6B41E80023BB62BB6A002BE3D17B68E8
:104BD800202283F83E207B6800221A637B681B68CA
:104BE8000C333B613B6953E8003FFB60FB6823F0F3
:104BF8001003C7F8C0307B681B680C33D7F8C02097
:104C0800FA61BB61B969FA6941E800237B617B6994
:104C1800002BE3D1B7F8CE301946786800F048F891
:104C280023E0D7F8E43003F08003002B09D0D7F84D
:104C3800E03003F08003002B03D0786800F0BBF865
:104C480014E0D7F8E43003F04003002B0ED0D7F877
:104C5800E03003F04003002B08D0786800F0FBF840
:104C680004E000BF02E000BF00E000BFE837BD4637
:104C780080BD00BF80B483B000AF786000BF0C3740
:104C8800BD465DF8047B704780B483B000AF7860A0
:104C980000BF0C37BD465DF8047B704780B483B015
:104CA80000AF786000BF0C37BD465DF8047B7047E5
:104CB80080B483B000AF78600B467B8000BF0C37B0
:104CC800BD465DF8047B704780B495B000AF78604E
:104CD8007B681B680C337B637B6B53E8003F3B634B
:104CE8003B6B23F49073FB647B681B680C33FA6C92
:104CF8003A64FB63F96B3A6C41E80023BB63BB6B16
:104D0800002BE5D17B681B6814333B623B6A53E890
:104D1800003FFB61FB6923F00103BB647B681B68F0
:104D28001433BA6CFA62BB62B96AFA6A41E80023C2
:104D38007B627B6A002BE5D17B681B6B012B19D149
:104D48007B681B680C33FB60FB6853E8003FBB6063
:104D5800BB6823F010037B647B681B680C337A6C98
:104D6800BA617B617969BA6941E800233B613B69B3
:104D7800002BE5D17B68202283F83E207B68002247
:104D88001A6300BF5437BD465DF8047B704780B591
:104D980084B000AF78607B689B6BFB60FB68002287
:104DA800DA85FB680022DA84F868FFF777FF00BF2E
:104DB8001037BD4680BD80B485B000AF78607B6891
:104DC80093F83D30DBB2212B3ED17B689B68B3F56D
:104DD800805F14D17B681B69002B10D17B681B6A2C
:104DE800FB60FB681B881A467B681B68C2F30802D5
:104DF8005A607B681B6A9A1C7B681A6208E07B68A9
:104E08001B6A591C7A6811621A787B681B685A6099
:104E18007B68DB8C9BB2013B9BB27A681946D184D4
:104E2800002B0FD17B681B68DA687B681B6822F04F
:104E38008002DA607B681B68DA687B681B6842F06E
:104E48004002DA60002300E0022318461437BD460A
:104E58005DF8047B704780B582B000AF78607B68EE
:104E68001B68DA687B681B6822F04002DA607B689E
:104E7800202283F83D207868FFF7FCFE00231846BF
:104E88000837BD4680BD80B58CB000AF78607B68C0
:104E980093F83E30DBB2222B40F0AB807B689B68F6
:104EA800B3F5805F17D17B681B69002B13D10023F2
:104EB800FB627B689B6ABB627B681B685B689BB212
:104EC800C3F308039AB2BB6A1A807B689B6A9A1C70
:104ED8007B689A6226E07B689B6AFB620023BB6260
:104EE8007B689B68B3F5805F07D07B689B68002B65
:104EF8000AD17B681B69002B06D17B681B685B683D
:104F0800DAB2FB6A1A7008E07B681B685B68DBB280
:104F180003F07F03DAB2FB6A1A707B689B6A5A1C3B
:104F28007B689A627B68DB8D9BB2013B9BB27A6897
:104F38001946D185002B5AD17B681B68DA687B68D3
:104F48001B6822F02002DA607B681B68DA687B68DD
:104F58001B6822F48072DA607B681B685A697B6878
:104F68001B6822F001025A617B68202283F83E20E8
:104F78007B681B6B012B35D17B6800221A637B6829
:104F88001B680C337B617B6953E8003F3B613B69DD
:104F980023F010037B627B681B680C337A6A3A62E1
:104FA800FB61F9693A6A41E80023BB61BB69002BE0
:104FB800E5D17B681B681B6803F01003102B0AD12E
:104FC8000023FB607B681B681B68FB607B681B68B1
:104FD8005B68FB60FB687B689B8D19467868FFF708
:104FE80067FE02E07868FFF74FFE002302E0002327
:104FF80000E0022318463037BD4680BD2DE9B04F8A
:10500800C0B000AFC7F8F400D7F8F4301B681B69CC
:1050180023F44050D7F8F430D968D7F8F4301A6838
:1050280040EA01031361D7F8F4309A68D7F8F430EE
:105038001B691A43D7F8F4305B691A43D7F8F43080
:10504800DB691343C7F8F830D7F8F4301B68DB681E
:1050580023F4164121F00C01D7F8F4301A68D7F878
:10506800F8300B43D360D7F8F4301B685B6923F43E
:105078004070D7F8F4309969D7F8F4301A6840EAE4
:1050880001035361D7F8F4301A688F4B9A4205D060
:10509800D7F8F4301A688D4B9A4204D1FEF768FBB2
:1050A800C7F8FC0003E0FEF74FFBC7F8FC00D7F891
:1050B800F430DB69B3F5004F40F00C81D7F8FC30D1
:1050C8000022C7F8E830C7F8EC20D7E93A4522466D
:1050D8002B469118B9655B41FB65D7E91623214634
:1050E80012EB0108294643EB01094FF000024FF08B
:1050F80000034FEAC90343EA58734FEAC8029046CF
:105108009946234618EB0303C7F8E0302B4649EBD2
:105118000303C7F8E430D7F8F4305B680022C7F817
:10512800D830C7F8DC20D7E936120B46DB183B65C8
:10513800134642EB03037B65D7E91423D7E938010B
:10514800FBF744FB02460B46614BA3FB02235B09BA
:105158001C01D7F8FC300022C7F8D030C7F8D4209B
:10516800D7E9348942464B469118B9645B41FB64E0
:10517800D7E91223414612EB010A494643EB010BDA
:105188004FF000024FF000034FEACB0343EA5A7393
:105198004FEACA0292469B4643461AEB0303C7F8F6
:1051A800C8304B464BEB0303C7F8CC30D7F8F43084
:1051B8005B680022C7F8C030C7F8C420D7E93012AE
:1051C8000B46DB183B64134642EB03037B64D7E9C9
:1051D8001023D7E93201FBF7F9FA02460B461146CC
:1051E8003B4BA3FB01235B09642202FB03F3CB1AAD
:1051F800DB0003F13202364BA3FB02235B095B00A1
:1052080003F4F8731C44D7F8FC300022C7F8B83010
:10521800C7F8BC20D7E92E8942464B469118B96396
:105228005B41FB63D7E90E23414651183963494670
:105238004B417B634FF000024FF00003D7E90CAB02
:105248005946CB00514643EA51735146CA001046AD
:105258001946034642469B18C7F8B0304B460A46E3
:1052680042EB0303C7F8B430D7F8F4305B68002288
:10527800C7F8A830C7F8AC20D7E92A120B46DB18C4
:10528800BB62134642EB0303FB62D7E90A23D7E963
:105298002C01FBF79BFA02460B460D4BA3FB0213AE
:1052A8005B09642101FB03F3D31ADB003233084A9C
:1052B800A2FB03235B0903F00702D7F8F4301B684D
:1052C80022449A6005E100BF00100140001401402B
:1052D8001F85EB51D7F8FC300022C7F8A030C7F87B
:1052E800A420D7E9288942464B46911839625B4188
:1052F8007B62D7E9082341465418494643EB010528
:105308004FF000024FF00003EB0043EA5473E20051
:1053180014461D464346E318C7F898304B4645EBFC
:105328000303C7F89C30D7F8F4305B680022C7F84D
:105338009030C7F894204FF000024FF00003D7E9EF
:10534800244529468B00214643EA917321468A0069
:10535800D7E92601FBF73AFA02460B46604BA3FB56
:1053680002235B091C01D7F8FC300022C7F88830FB
:10537800C7F88C20D7E9228942464B469118B96173
:105388005B41FB61D7E9062341465118396149461B
:105398004B417B614FF000024FF00003D7E904ABAB
:1053A8005946CB00514643EA51735146CA0010464C
:1053B8001946034642469B18C7F880304B460A46B2
:1053C80042EB0303C7F88430D7F8F4305B68002257
:1053D800BB67FA674FF000024FF00003D7E91E8958
:1053E80049468B00414643EA917341468A00D7E912
:1053F8002001FBF7EBF902460B46394BA3FB0213DE
:105408005B09642101FB03F3D31A1B013233344ACD
:10541800A2FB03235B0903F0F0031C44D7F8FC301C
:1054280000223B677A67D7E91C8942464B469118A8
:10543800B9605B41FB60D7E90223414651183960E6
:1054480049464B417B604FF000024FF00003D7E91B
:1054580000AB5946CB00514643EA51735146CA0046
:1054680010461946034642469B18BB664B460A46F9
:1054780042EB0303FB66D7F8F4305B6800223B6617
:105488007A664FF000024FF00003D7E918894946C1
:105498008B00414643EA917341468A00D7E91A01D5
:1054A800FBF794F902460B460D4BA3FB02135B096D
:1054B800642101FB03F3D31A1B013233084AA2FB10
:1054C80003235B0903F00F02D7F8F4301B6822446A
:1054D8009A6000BF07F58077BD46BDE8B08F00BF72
:1054E8001F85EB5170B50D4D0D4C641BA4100026A3
:1054F800A64209D10B4D0C4C00F020F8641BA410F7
:105508000026A64205D170BD55F8043B98470136E0
:10551800EEE755F8043B98470136F2E77C5500085A
:105528007C5500087C550008805500080244034655
:10553800934200D1704703F8011BF9E7F8B500BFA3
:10554800F8BC08BC9E467047F8B500BFF8BC08BC5C
:045558009E467047B4
:10555C000000000000000000010203040607080917
:08556C0000000000010203042D
:0855740090B2FF7F010000006E
:04557C00AD01000875
:045580008901000895
:0C5584000024F4001000000001000000F2
:040000050800238943
:00000001FF
